:020000040800F2
:10000000B0060020CD0100080F13000817100008EB
:100010000D13000887020008E91400080000000022
:100020000000000000000000000000008513000830
:10003000890200080000000031130008CB130008FB
:10004000E7010008E7010008E7010008E7010008F0
:10005000E7010008E7010008E7010008E7010008E0
:10006000E7010008E7010008E7010008E7010008D0
:10007000E7010008E7010008E7010008E7010008C0
:10008000E7010008E7010008E7010008E7010008B0
:10009000E7010008E7010008E7010008E7010008A0
:1000A000E7010008E7010008E7010008E701000890
:1000B000E701000819140008E7010008E70100083B
:1000C000E7010008E7010008E7010008E701000870
:1000D000E7010008E7010008E7010008E701000860
:1000E000E7010008E7010008E7010008E701000850
:1000F000E7010008E7010008E7010008E701000840
:10010000E7010008E7010008E7010008E70100082F
:10011000E7010008E7010008E7010008E70100081F
:10012000E7010008E7010008E7010008E70100080F
:1001300000F002F800F03AF80AA090E8000C8244BF
:100140008344AAF10107DA4501D100F02FF8AFF29C
:10015000090EBAE80F0013F0010F18BFFB1A43F0A5
:10016000010318477C1B00009C1B0000103A24BFB1
:1001700078C878C1FAD8520724BF30C830C144BF0C
:1001800004680C607047000000230024002500264E
:10019000103A28BF78C1FBD8520728BF30C148BFEA
:1001A0000B6070471FB51FBD10B510BD00F031F8D2
:1001B0001146FFF7F7FF01F0B5F900F04FF803B46F
:1001C000FFF7F2FF03BC00F057F800000948804732
:1001D00009480047FEE7FEE7FEE7FEE7FEE7FEE729
:1001E000FEE7FEE7FEE7FEE704480549054A064B41
:1001F00070470000D113000831010008B000002052
:10020000B0060020B0020020B00200207047704706
:100210007047754600F02CF8AE4605006946534617
:1002200020F00700854618B020B5FFF7DDFFBDE8D8
:1002300020404FF000064FF000074FF000084FF04D
:10024000000B21F00701AC46ACE8C009ACE8C009DE
:10025000ACE8C009ACE8C0098D46704710B504464B
:10026000AFF300802046BDE81040FFF7A8BF0000B4
:10027000004870474C00002001491820ABBEFEE743
:10028000260002007047FEE77047002242F6140382
:1002900006E00021491C89B29942FBD3521C92B25C
:1002A0008242F6D37047002206E00021491C89B241
:1002B0000929FBD3521C92B28242F6D37047000048
:1002C000084A10B550884FF47A7148430021518094
:1002D000054A136811601C183220FFF7D6FF20462C
:1002E00010BD00000C00002024040040084A10B596
:1002F00010884FF47A71484300211180054A136831
:1003000011601C183220FFF7C0FF204610BD00000E
:100310000C0000202404004031B500F009F9044627
:1003200000F006F90099001B8842F9D338BD00009F
:100330002DE9F84FDFF8BC91002309F1040A0AF116
:10034000040B1C464FF00F080BF1040E01270A683E
:10035000A7403A40BA4272D1DFF89CC14D68A5EB84
:100360000C0665452BD00DDC032D34D005DC35B3F0
:10037000012D19D0022D2FD11BE0112D16D0122DD9
:100380002AD119E0B6F5881F19D006DCB6F5803FF2
:1003900015D0B6F5801F1FD111E0B6F5001F0ED0A5
:1003A000B6F5041F18D10AE0CB6815E0CB681B1D19
:1003B00012E0CB6808330FE0CB680C330CE08B689D
:1003C0002BB1012B4FF0080303D0476104E0042355
:1003D00002E0076100E00023FF2A01D8064601E0A1
:1003E00000F104064FEA840501D9A5F1200537681C
:1003F00008FA05FC27EA0C0703FA05F547EA0507A2
:1004000037604D68ED006ED53C4DAE6946F0010693
:10041000AE61AD6924F0030605F001050095384D85
:100420007719BE68A5072D0F08FA05FC26EA0C0609
:10043000DFF8D0C0604503D14FF0000C25E052E05A
:10044000DFF8C4C0604502D14FF0010C1DE0DFF8B9
:10045000BCC0604502D14FF0020C16E0DFF8B0C01E
:10046000604502D14FF0030C0FE0DFF8A8C06045F3
:1004700002D14FF0040C08E0DFF89CC0604502D1C7
:100480004FF0050C01E04FF0060C0CFA05FC4CEAAD
:10049000060CC7F808C04D68D9F80060ED034D465A
:1004A00001D5164300E096432E604D68DAF80060EF
:1004B000AD03554601D5164300E096432E604D68C6
:1004C000DBF80060ED025D4601D5164300E096437F
:1004D0002E604D68DEF80060AD02754601D516430A
:1004E00000E096432E60641C102CFFF42FAFBDE893
:1004F000F88F0000000401400000111000100240BD
:100500000000014000080140000C014000100140C3
:100510000014014000180140001C014080680840A0
:1005200000D0012070470AB1016170470904FBE760
:10053000014800687047000004000020024801687C
:10054000491C01607047000004000020074810B5F6
:10055000016841F010010160032000F047F80F200E
:1005600000F006F800F015F8002010BD0020024051
:1005700010B5044600F00CF94FF47A71B0FBF1F0BD
:1005800000F019FC00222146501E00F00FF8002058
:1005900010BD704700F01F0201219140400980000A
:1005A00000F1E020C0F8001170470000F0B40E4BDD
:1005B0001B68C3F30223C3F10704042C00D90424ED
:1005C0001D1D072D01D2002300E0DB1E012606FAC7
:1005D00004F56D1E0D409D409E40761E164045EA76
:1005E0000601F0BC00F094BE0CED00E0064A00F0FD
:1005F000070110684FF6FF03184040EA0120034945
:1006000008431060704700000CED00E00000FA05A0
:100610002DE9F047DFF8688104460E46D8F800005F
:1006200000F00700B0420CD2D8F8001021F007010A
:100630003143C8F80010D8F8000000F00700B042BD
:1006400073D120784F4F800705D57868A16820F0D6
:10065000F000084378602078C00755D06068012218
:1006600001280CD0022828D0022393FAA3F1B1FA72
:1006700081F141F02001490904D0396803E04FF4C9
:100680000033F2E7796A93FAA3F3B3FA83F303F042
:100690001F039A40114248D0796821F003010143B9
:1006A0007960FFF745FF0546606841F2883101280F
:1006B0000CD00228894615D022E04FF00073D4E711
:1006C000FFF736FF411B494501D916E08946786896
:1006D000C0F381000128F3D116E0FFF729FF411B89
:1006E00049450AD87868C0F381000228F5D10BE0AB
:1006F000FFF71EFF411B494502D90320BDE8F087E3
:10070000786810F00C0FF3D1D8F80010404601F0D3
:100710000701B1420BD9016821F0070131430160A3
:10072000006800F00700B04201D00120E6E7207821
:10073000400705D57868E16820F4E06008437860F8
:100740002078000706D57868216920F4605040EAD7
:10075000C100786000F022F87968F02292FAA2F2E3
:1007600001F0F001B2FA82F2D140074A515CC84070
:10077000064908600F20FFF7FBFE0020BEE70000DF
:100780000020024000100240CE1C000800000020A3
:1007900001480068704700000000002010B519A053
:1007A00085B00FC88DE80F001AA01B4B006804909D
:1007B00059681A4801F00C02042A1DD0082A1BD1DE
:1007C0004FF4701494FAA4F401F47012B4FA84F49F
:1007D000E240C9031DF8022010D559684FF40033D8
:1007E00093FAA3F301F40031B3FA83F3D94004ABD5
:1007F000595CB0FBF1F0504305B010BD08485043C0
:10080000FAE7000002030405060708090A0B0C0DAD
:100810000E0F1010010200000010024000127A00BA
:1008200000093D002DE9F84F04460078FE4EC00750
:100830004FF001057FD070684FF40038C0F381009D
:10084000012807D07068C0F3810002281BD17068AE
:10085000C00318D598FAA8F0B0FA80F040F0200054
:10086000400901D0306800E0706A98FAA8F1B1FA46
:1008700081F101F01F0105FA01F108425BD06068C7
:10088000002879D057E06068B0F5803F0BD010B1F8
:10089000B0F5A02F11D0306820F48030306030687F
:1008A00020F4802002E0306840F4803030606068DE
:1008B00018B3FFF73DFE074609E0306840F480209A
:1008C0003060F0E7FFF734FEC01B642870D898FA58
:1008D000A8F0B0FA80F040F02000400901D0306864
:1008E00000E0706A98FAA8F1B1FA81F101F01F01F5
:1008F00005FA01F10842E5D01DE0FFF719FE0746B1
:1009000004E0FFF715FEC01B6428DFD898FAA8F0B2
:10091000B0FA80F040F02000400901D0306800E0DB
:10092000706A98FAA8F1B1FA81F101F01F0105FA95
:1009300001F10842E5D12078DFF8F08280074FF01E
:10094000000A4FF002075AD570684FF0F80B10F00C
:100950000C0F07D07068C0F3810002281CD17068AA
:10096000C00319D497FAA7F0B0FA80F040F0200045
:10097000400902D0306801E08AE0706A97FAA7F176
:10098000B1FA81F101F01F0105FA01F108422BD003
:10099000206901287CD127E0206988B395FAA5F069
:1009A000B0FA80F048F82050FFF7C2FD814606E01B
:1009B0004DE1FFF7BDFDA0EB0900022886D897FAAC
:1009C000A7F0B0FA80F040F02000400901D0306874
:1009D00000E0706A97FAA7F1B1FA81F101F01F0106
:1009E00005FA01F10842E4D030689BFAABF220F03E
:1009F000F8016069B2FA82F290400143316025E06B
:100A0000FFE795FAA5F1B1FA81F148F821A0FFF7C7
:100A10008FFD814605E0FFF78BFDA0EB0900022862
:100A2000CCD897FAA7F0B0FA80F040F02000400947
:100A300001D0306800E0706A97FAA7F1B1FA81F14D
:100A400001F01F0105FA01F10842E4D12078000706
:100A50006DD5A069B8B395FAA5F0B0FA80F008EBAF
:100A60008000C0F88054FFF763FD814605E0FFF782
:100A70005FFDA0EB09000228A0D897FAA7F0B0FA12
:100A800080F040F06000B5EB501F02D130680CE000
:100A900063E197FAA7F0B0FA80F040F06000B7EB9E
:100AA000501F01D1306A00E0706A97FAA7F1B1FADD
:100AB00081F101F01F0105FA01F21042D7D00120A7
:100AC000FFF72AFC33E0FFE795FAA5F1B1FA81F1CF
:100AD00008EB8101C1F880A4FFF72AFD814605E0FB
:100AE000FFF726FDA0EB0900022899D897FAA7F096
:100AF000B0FA80F040F06000B5EB501F01D13068D3
:100B00000BE097FAA7F0B0FA80F040F06000B7EB86
:100B1000501F01D1306A00E0706A97FAA7F1B1FA6C
:100B200081F101F01F0105FA01F21042D8D12078BD
:100B3000400763D5F06940F08050F061F069DFF85C
:100B4000F0B000F080500090DBF8001041F48071AC
:100B5000CBF80010FFF7ECFC814605E0FFF7E8FC5E
:100B6000A0EB0900642872D8DBF80000C005F5D5B9
:100B7000E06801280AD008B1052813D0306A20F0B7
:100B800001003062306A20F0040002E0306A40F078
:100B900001003062E06841F2883B80B3FFF7C8FC97
:100BA00081460AE0306A40F004003062EEE7FFF769
:100BB000BFFCA0EB0901594549D897FAA7F0B0FA54
:100BC00080F040F04000B5EB501F01D130680BE0E1
:100BD00097FAA7F0B0FA80F040F04000B7EB501F52
:100BE00001D1306A00E0706A97FAA7F1B1FA81F199
:100BF00001F01F0205FA02F10842D8D033E0FFE706
:100C0000FFF796FC814605E0FFF792FCA0EB090197
:100C100059451CD897FAA7F0B0FA80F040F0400090
:100C2000B5EB501F08D105E0001002400000424221
:100C30000070004030680CE097FAA7F0B0FA80F03E
:100C400040F04000B7EB501F02D1306A01E08AE06B
:100C5000706A97FAA7F1B1FA81F101F01F0205FA63
:100C600002F10842D0D1E06998B37168C1F3810103
:100C7000022972D002284FF080714FF0007B50465D
:100C80000AD091FAA1F1B1FA81F148F82100FFF7F9
:100C90004FFC04465F4669E08A4691FAA1F1B1FA39
:100CA00081F1C14648F82100FFF742FCA8460746FB
:100CB0005D4604E0FFF73CFCC01B022853D895FAC0
:100CC000A5F0B0FA80F040F02000400902D0306872
:100CD00001E060E0706A95FAA5F1B1FA81F101F0E6
:100CE0001F0208FA02F10842E4D1206AB0F5803F01
:100CF00005D17068A16820F4003008437060D4E921
:100D000008010843716821F47411084370609AFA6D
:100D1000AAF0B0FA80F0474649F82080FFF708FCB7
:100D2000044604E0FFF704FC001B02281BD895FAD8
:100D3000A5F0B0FA80F040F02000400901D0306802
:100D400000E0706A95FAA5F1B1FA81F101F01F0196
:100D500007FA01F10842E5D01DE01EE0FFF7E8FBCD
:100D6000001B022802D90320BDE8F88F97FAA7F0EC
:100D7000B0FA80F040F02000400901D0306800E077
:100D8000706A97FAA7F1B1FA81F101F01F0105FA33
:100D900001F10842E2D10020E6E70120E4E74FF04C
:100DA000E0210428086903D020F00400086170479E
:100DB00040F00400FAE710B5401EB0F1807F01D387
:100DC000012010BD4FF0E02460610F21601700F09A
:100DD0009FFA0020A06107202061002010BD70470D
:100DE000704710B5040003D094F8390010B107E043
:100DF000012010BD002084F83800204600F00CF8D7
:100E0000022084F83900211D206800F02BFB01200E
:100E100084F83900002010BD08B500680F498842E9
:100E20001AD10F48816941F400618161816901F43F
:100E300000610091C16941F00201C161C0690322F2
:100E400000F00200009001211D20FFF7AFFBBDE87C
:100E500008401D20FFF79EBB08BD000000040040B5
:100E6000001002400168CA6842F00102CA600068CE
:100E7000016841F001010160002070470168CA6803
:100E800022F00102CA600068016A41F211121142A7
:100E900007D1016A9210114203D1016821F00101CA
:100EA000016000207047704770B504460068016912
:100EB0004FF00005C943890715D4C168C9438907A4
:100EC00011D4E91E01610120207620688069800725
:100ED000204602D0FFF7E7FF04E000F098F8204634
:100EE00000F096F8257620680169C943490717D4B0
:100EF000C168C943490713D46FF00401016102209E
:100F000020762068806910F4407F204602D0FFF7E9
:100F1000CAFF04E000F07BF8204600F079F825765F
:100F200020680169C943090716D4C168C943090784
:100F300012D46FF008010161042020762068C06996
:100F40008007204602D0FFF7AEFF04E000F05FF814
:100F5000204600F05DF8257620680169C943C9067E
:100F600017D4C168C943C90613D46FF010010161D9
:100F7000082020762068C06910F4407F204602D007
:100F8000FFF791FF04E000F042F8204600F040F83F
:100F9000257620680169C943C90708D1C168C943DA
:100FA000C90704D1891E0161204600F032F820688B
:100FB0000169C943090609D4C168C943090605D4B2
:100FC0006FF0800101612046FFF709FF2068016989
:100FD000C943490609D4C168C943490605D46FF01D
:100FE00040010161204600F015F820680169C943FD
:100FF00089060BD4C168C943890607D46FF0200164
:1010000001612046BDE87040FFF7EABE70BD704741
:10101000704770477047FEE770B51D4900241D4DAD
:1010200026464C80012220212846FFF77CFA142016
:10103000FFF739F9002220212846FFF774FA4021F2
:101040002846FFF76BFA0028F9D01348FFF70AFF8C
:10105000641C40212846FFF761FA0128F9D00E48A8
:10106000FFF722FF0C48FFF709FFFFF729F900F00F
:10107000EBFC0A4900F006FC314600F09BFB0646FB
:10108000022CCFDBBDE870404FF0FF3100F0E1BD36
:101090000C000020000C01401000002000004E4217
:1010A0002DE9F04100241D491D4E27460C80B51541
:1010B000012280213046FFF736FA1420FFF7F3F8BB
:1010C000002280213046FFF72EFA29463046FFF7EE
:1010D00025FA0028F9D01348FFF7C4FE641C2946FE
:1010E0003046FFF71BFA0128F9D00E48FFF7DCFE67
:1010F0000C48FFF7C3FEFFF7F9F800F0A5FC0A491A
:1011000000F0C0FB394600F055FB0746022CCFDB50
:10111000BDE8F0414FF0FF3100F09BBD0C00002016
:10112000000C01401000002000004E4270B5044643
:10113000304DC00701D0012200E0002201212846E5
:10114000FFF7F1F9A00701D5012200E000220221FA
:101150002846FFF7E8F9600701D5012200E00022E8
:1011600004212846FFF7DFF9200701D5012200E01E
:10117000002208212846FFF7D6F9E00601D5012212
:1011800000E0002210212846FFF7CDF9A00601D586
:10119000012200E0002220212846FFF7C4F9600662
:1011A00001D5012200E0002240212846FFF7BBF9CB
:1011B000200601D5012200E0002280212846FFF709
:1011C000B2F94FF4AA74204600F0A3F90122960266
:1011D00031462846FFF7A7F9204600F09AF9002289
:1011E00031462846FFF79FF92046BDE8704000F0E1
:1011F00090B9000000100140254810B5816986B003
:1012000041F0100181618069224C00F010000490CF
:1012100040F2FF70009001200190029003200390A3
:1012200069462046FFF784F8002261152046FFF743
:101230007AF94FF4AA7000F06CF90022A11520464B
:10124000FFF771F9382000F02FF8042000F058F96A
:10125000082000F029F8042000F052F9012000F0E5
:1012600023F8042000F04CF9062000F01DF80420BB
:1012700000F046F90C2000F017F8042000F040F9C7
:10128000012000F011F8042000F03AF906B010BD7A
:10129000001002400010014019B1C030C0B200F08F
:1012A00003B88030FAE7000010B5044600224FF47E
:1012B00080710648FFF737F92046FFF737FFBDE892
:1012C00010404FF4AA7000F024B900000010014053
:1012D00010B50446012211020548FFF724F9204603
:1012E000FFF724FFBDE810404FF4AA7000F011B9D9
:1012F0000010014010B51446FFF7CEFF02E0FFF7E3
:10130000E7FF641C20780028F9D110BDFEE7704784
:101310000907090E002806DA00F00F0000F1E020AE
:1013200080F8141D704700F1E02080F80014704729
:101330007047000030B5114885B0816941F008015F
:1013400081618069032400F008000490A0200090CF
:101350000120CDE902040A4D019069462846FEF7B6
:10136000E7FF00214FF4A070CDE90214CDE90001A0
:1013700069462846FEF7DCFF05B030BD001002408C
:10138000000C0140704730B58FB00121009102255B
:10139000090400240795CDE90114CDE90810684639
:1013A000FFF740FA00B1FEE70F20CDE90A054FF440
:1013B0008060CDE90C4002210AA80E94FFF728F9BD
:1013C000002800D0FEE70FB030BDFFF7B7B800002F
:1013D0000D48016841F00101016041680B4A11406C
:1013E000416001680A4A11400160016821F48021CE
:1013F0000160416821F4FE0141604FF41F018160EA
:101400000449C00308607047001002400000FFF864
:10141000FFFFF6FE08ED00E004480188491C01804A
:101420004188491C41800248FFF73EBD0C00002066
:10143000100000200A4A10B5084BC2E90031002113
:10144000C2E9021010461161FFF7CBFC0448FFF718
:1014500009FDBDE810400248FFF7DEBC0004004073
:1014600010000020F0B502681A4D1B4E1B4FDFF82C
:1014700070C01C4B4FF0804EA84209D0984207D054
:10148000704505D0B04203D0B84201D0604503D1C9
:1014900022F070044A682243A84209D0984207D03B
:1014A000704505D0B04203D0B84201D0604503D1A9
:1014B00022F44074CA68224302608A68C2620A68E1
:1014C0008262A84201D0984201D1096901630121D9
:1014D0004161F0BD002C01400004004000080040C4
:1014E000000C004000340140FEE7000010B5044647
:1014F0000420FFF754FC0148046010BD08000020E0
:1015000000B5030004D00A2000F003F85B1EFAD1F6
:1015100000BD0A22014600E0491E0029FCD1521EEE
:10152000F8D170471CB50020009004464FF0030826
:101530000190FFF70BF84FF4E010FFF724FF48206D
:10154000FFF7D4FFFFF758FE57A200210120FFF755
:10155000D1FE56A200210720FFF7CCFEFFF7EAFEDE
:1015600000F0C6F8DFF848A10120CAF8B40147210D
:1015700040F2E730FFF75EFFFFF74EFDFFF790FD0B
:101580004FF00A0908EB880BFFF746FD0646FFF708
:1015900087FD0546304600F037FA80B26427B0FB7D
:1015A000F7F130318DF80010B0FBF7F107FB1102B5
:1015B000B2FBF9F130318DF80110B0FBF7F107FB08
:1015C0001101B1FBF9F209FB121030308DF8020065
:1015D000284600F019FA80B2B0FBF7F130318DF8EF
:1015E0000410B0FBF7F107FB1102B2FBF9F1303147
:1015F0008DF80510B0FBF7F107FB1101B1FBF9F213
:1016000009FB121030308DF806006A4600210320D5
:10161000FFF770FE01AA00210920FFF76BFE254F9E
:10162000BE4206DABD4204DD012000F07FF822A2AE
:1016300015E0BE4206DDBD4204DA002000F076F877
:1016400021A20CE0BE4206DABD4204DA022000F01C
:101650006DF821A203E0032000F068F821A2012127
:101660000846FFF747FEBE4201DBBD4201DA01201A
:1016700003E000200121CAF8B411641CE4B2B4EB09
:101680004B0F01D908F10104B4FBF8F208FB124139
:1016900000297FF479AF00283FF476AFDAF8B4116F
:1016A000C943CAF8B4116FE74C3A0000523A00003F
:1016B000008021420000A0417475726E207269673B
:1016C00068742020000000007475726E206C6566DE
:1016D000742020200000000072756E206261636B30
:1016E0002020200072756E20666F72776172640030
:1016F0000C4800B5816985B041F0080181618069BD
:10170000694600F0080004904FF4785000900120E2
:1017100001900290032003900348FEF709FE05B0F4
:1017200000BD000000100240000C01402DE9F04116
:101730004FF400611E4C4D008E104F10D0B10128A7
:101740001ED0022822D0032830D101222046FEF7E5
:10175000EAFE002229462046FEF7E5FE0022314639
:101760002046FEF7E0FE012239462046BDE8F04162
:10177000FEF7D9BE00222046FEF7D5FE0122E9E79A
:1017800001222046FEF7CFFE002204E00022204680
:10179000FEF7C9FE012229462046FEF7C4FE0122BB
:1017A00031462046FEF7BFFE0022DDE7BDE8F081AE
:1017B000000C014090EA010F48BF81F0004100F1A8
:1017C000A881421A3CBF801A89184FEAD0524FF0C4
:1017D0007F4C1CEA410FA2EBD15318BF9CEA026F69
:1017E00000F03B804FF0004C4CEA00204CEA012115
:1017F00021FA03FC10EB0C0C1ED202F1FF325FEA5F
:101800001C2040EBC25038BF70471CF07F0F4FEADE
:10181000400C18BFBCF17F4F38BF7047C3F12003A5
:10182000994008BF20F00100BCF17F4F38BF7047DE
:10183000A0F1C04000F061B94FEA3C00000A40EB63
:10184000C25028BF1CF0FF0F4FEA400CE6D018BF73
:10185000BCF17F4F38BF7047EAE79CEA026F05D0C2
:1018600010EA5C0F08BF00F00040704710B500F0B0
:10187000FEF800BF64FBBE3E014800F0B8B900BFEF
:101880000000C07F4FF47F0C1CEAD0121EBF1CEA80
:10189000D11392EA0C0F93EA0C0F00F0858090EAC6
:1018A000010F48BF42F4807240F4000C41F4000084
:1018B0002CF07F4120F07F4000B58142A2EB030273
:1018C0000FF2081CACEB504EC0F100009EF800E097
:1018D0004FEA4E0E00FB0EFC38BF49004FEA2C1CAD
:1018E00002F5FA020CFB0EF34FEACE1E4FEA112C62
:1018F0004FEAC1210EEB635E42EB22420EFB0CFC71
:101900004FEA1C5300FB03114FEA112C4FEA01313F
:101910000EFB0CFC4FEADC4C00FB0C11C14228BF53
:1019200009184CEB03335DF804EB10EB410143EB7A
:10193000C250B2F57C0F38BF704729D512F0F00FB6
:101940001CBF00F1C04000F000407047008182835E
:101950008485868788898B8C8D8E8F9192939596BE
:1019600097999A9C9D9FA0A2A3A5A7A8AAACAEB048
:10197000B2B3B5B7B9BCBEC0C2C5C7C9CCCED1D44D
:10198000D7D9DCDFE2E6E9ECF0F3F7FAFE0000007D
:101990004FEA400C0CF1807CBCF17E4F28BF7047B1
:1019A000B0F1C04000F0A9B890EA010F0CEAD113E1
:1019B00048BF42F48072624538BF634507D213F4D2
:1019C0007F0F16D080EA010000F00040704710B58C
:1019D00000F04DF8097EFC3E00F005B880EA0100F9
:1019E00000F00040704780EA010000F0004000F085
:1019F00084B812F47F0F04BF0248704780EA0100E8
:101A000000F07BB80000C07FC10DD1F19E0206DB63
:101A10004FEA002343F0004323FA02F070470042EC
:101A200007D54FEA4001B1F1FE4F02D24FF000005E
:101A3000704710B500F01BF84992248000207047D1
:101A40006FEA200070470000B0FA80F310FA03F24A
:101A5000C3F19D030AD0D90501EB1220530638BF0C
:101A6000704700F1010008BF20F0010070470EF13F
:101A7000020E2EF0030E5EF8044B244204D44FEA0B
:101A80004102B2F17F4F11D84FEA4003B3F17F4FCB
:101A90000CD80ED14FEAD07CB2F17F4F0CEB4C0C3E
:101AA0000CF1020C08BF4CEBD17C04E04FF0080CA9
:101AB00001E04FEAD17C0CEB4C0324FA03F404F070
:101AC0000704B4F1040C06D20EEB840CBDE8104000
:101AD0004CF0010C6047DFE80CF0070802024FF001
:101AE0000040A0F5800010BD0846420018BFD2F1AA
:101AF000807288BF00F0004010BDFF2141EAD05045
:101B0000C005704790EA010F48BF81F000413FF5E2
:101B100058AE421A04D882F00042A0EB02001144F1
:101B20004FEAD0524FF07F4C1CEA410FA2EBD15349
:101B300018BF9CEA026F4AD04FF0004C4CEA0020DC
:101B40004CEA012121FA03FCB0EB0C0C0FD412F08B
:101B5000FE0F36D05FEA4C001DD5001240EBC2509C
:101B600038BF70471CF03F0F18BF70470BE0A2F161
:101B700001025FEA1C2040EBC25038BF70471CF0E6
:101B80007F0F18BF7047C3F12003994014BF401E58
:101B900020F00100704780084FEA122308BF704709
:101BA000B0FA80FCA2EB0C02CCF1280C60FA0CF02D
:101BB00093EA122F04BF00EBC25070474FEAC37084
:101BC0007047130A5FEADC1008BF7047F6E79CEA2B
:101BD000026F04D010EA5C0F08BF0020704710B5F8
:101BE000FFF745FF40DFF63E81F0004070470CF004
:101BF0000F03092B08BF082000F051800A2B0BD0DF
:101C0000082B18BF704708BF1CF0400F0AD04FF0D8
:101C100000004FF0000170471CF0400F18BF4FF05C
:101C2000004070471CF0100F08D020F0704300F007
:101C30007F4242EAD3014FEA4370704700F06040B0
:101C400021F07F4242EA000201F07F4040EA7270D8
:101C500070474FF0FF0212EAD0521CBF92F0FF0310
:101C60008B42C2BFD14200EBC1507047002A0AD05C
:101C7000002B0BD0002900F00040A4BF40F0FE4034
:101C800040F40000704700F00040704743024FF0FE
:101C90000B0C18BF4CF0806C7FF4EEAD70471CF459
:101CA000801F11D01CF4E02F03D06FEACC31490023
:101CB00070474FF04050EFF3008222F0704242EA4A
:101CC000000282F3008870474FF000007047000068
:101CD00000000000000001020304060708090000DC
:101CE000001D000800000020100000006C0100082A
:101CF000101D000810000020A00600008801000848
:101D000000A24A04000000000000000000000000E3
:0400000508000131BD
:00000001FF
